{
  "contractName": "fundraiser",
  "abi": [
    {
      "constant": true,
      "inputs": [
        {
          "internalType": "uint256",
          "name": "",
          "type": "uint256"
        }
      ],
      "name": "fundraiserlist",
      "outputs": [
        {
          "internalType": "string",
          "name": "",
          "type": "string"
        }
      ],
      "payable": false,
      "stateMutability": "view",
      "type": "function"
    },
    {
      "constant": true,
      "inputs": [
        {
          "internalType": "uint256",
          "name": "",
          "type": "uint256"
        }
      ],
      "name": "transferlist",
      "outputs": [
        {
          "internalType": "string",
          "name": "",
          "type": "string"
        }
      ],
      "payable": false,
      "stateMutability": "view",
      "type": "function"
    },
    {
      "constant": true,
      "inputs": [
        {
          "internalType": "string",
          "name": "",
          "type": "string"
        }
      ],
      "name": "traverse",
      "outputs": [
        {
          "internalType": "uint256",
          "name": "target",
          "type": "uint256"
        },
        {
          "internalType": "uint256",
          "name": "collected",
          "type": "uint256"
        },
        {
          "internalType": "bool",
          "name": "b",
          "type": "bool"
        }
      ],
      "payable": false,
      "stateMutability": "view",
      "type": "function"
    },
    {
      "constant": false,
      "inputs": [
        {
          "internalType": "string",
          "name": "hash",
          "type": "string"
        },
        {
          "internalType": "uint256",
          "name": "target",
          "type": "uint256"
        }
      ],
      "name": "createfundraiser",
      "outputs": [],
      "payable": false,
      "stateMutability": "nonpayable",
      "type": "function"
    },
    {
      "constant": false,
      "inputs": [
        {
          "internalType": "string",
          "name": "hash",
          "type": "string"
        }
      ],
      "name": "transfer",
      "outputs": [],
      "payable": false,
      "stateMutability": "nonpayable",
      "type": "function"
    },
    {
      "constant": true,
      "inputs": [],
      "name": "getall",
      "outputs": [
        {
          "internalType": "string[]",
          "name": "",
          "type": "string[]"
        }
      ],
      "payable": false,
      "stateMutability": "view",
      "type": "function"
    },
    {
      "constant": true,
      "inputs": [],
      "name": "getfund",
      "outputs": [
        {
          "internalType": "string[]",
          "name": "",
          "type": "string[]"
        }
      ],
      "payable": false,
      "stateMutability": "view",
      "type": "function"
    }
  ],
  "bytecode": "0x608060405234801561001057600080fd5b50610c18806100206000396000f3fe608060405234801561001057600080fd5b506004361061007d5760003560e01c8063bb7517ac1161005b578063bb7517ac146100ec578063f3ea887a1461010a578063f95806bc14610126578063fc07dbfb146101585761007d565b8063909747951461008257806397dfdca4146100a0578063a0258d0b146100d0575b600080fd5b61008a610188565b60405161009791906109d9565b60405180910390f35b6100ba60048036036100b5919081019061084f565b610271565b6040516100c791906109fb565b60405180910390f35b6100ea60048036036100e591908101906107ba565b61032a565b005b6100f461036c565b60405161010191906109d9565b60405180910390f35b610124600480360361011f91908101906107fb565b610455565b005b610140600480360361013b9190810190610779565b610511565b60405161014f93929190610a1d565b60405180910390f35b610172600480360361016d919081019061084f565b61055e565b60405161017f91906109fb565b60405180910390f35b60606000805480602002602001604051908101604052809291908181526020016000905b82821015610268578382906000526020600020018054600181600116156101000203166002900480601f0160208091040260200160405190810160405280929190818152602001828054600181600116156101000203166002900480156102545780601f1061022957610100808354040283529160200191610254565b820191906000526020600020905b81548152906001019060200180831161023757829003601f168201915b5050505050815260200190600101906101ac565b50505050905090565b6000818154811061027e57fe5b906000526020600020016000915090508054600181600116156101000203166002900480601f0160208091040260200160405190810160405280929190818152602001828054600181600116156101000203166002900480156103225780601f106102f757610100808354040283529160200191610322565b820191906000526020600020905b81548152906001019060200180831161030557829003601f168201915b505050505081565b6001819080600181540180825580915050906001820390600052602060002001600090919290919091509080519060200190610367929190610617565b505050565b60606001805480602002602001604051908101604052809291908181526020016000905b8282101561044c578382906000526020600020018054600181600116156101000203166002900480601f0160208091040260200160405190810160405280929190818152602001828054600181600116156101000203166002900480156104385780601f1061040d57610100808354040283529160200191610438565b820191906000526020600020905b81548152906001019060200180831161041b57829003601f168201915b505050505081526020019060010190610390565b50505050905090565b600080905060405180606001604052808381526020018281526020016000151581525060028460405161048891906109c2565b9081526020016040518091039020600082015181600001556020820151816001015560408201518160020160006101000a81548160ff021916908315150217905550905050600083908060018154018082558091505090600182039060005260206000200160009091929091909150908051906020019061050a929190610617565b5050505050565b6002818051602081018201805184825260208301602085012081835280955050505050506000915090508060000154908060010154908060020160009054906101000a900460ff16905083565b6001818154811061056b57fe5b906000526020600020016000915090508054600181600116156101000203166002900480601f01602080910402602001604051908101604052809291908181526020018280546001816001161561010002031660029004801561060f5780601f106105e45761010080835404028352916020019161060f565b820191906000526020600020905b8154815290600101906020018083116105f257829003601f168201915b505050505081565b828054600181600116156101000203166002900490600052602060002090601f016020900481019282601f1061065857805160ff1916838001178555610686565b82800160010185558215610686579182015b8281111561068557825182559160200191906001019061066a565b5b5090506106939190610697565b5090565b6106b991905b808211156106b557600081600090555060010161069d565b5090565b90565b600082601f8301126106cd57600080fd5b81356106e06106db82610a81565b610a54565b915080825260208301602083018583830111156106fc57600080fd5b610707838284610b6b565b50505092915050565b600082601f83011261072157600080fd5b813561073461072f82610aad565b610a54565b9150808252602083016020830185838301111561075057600080fd5b61075b838284610b6b565b50505092915050565b60008135905061077381610bbe565b92915050565b60006020828403121561078b57600080fd5b600082013567ffffffffffffffff8111156107a557600080fd5b6107b1848285016106bc565b91505092915050565b6000602082840312156107cc57600080fd5b600082013567ffffffffffffffff8111156107e657600080fd5b6107f284828501610710565b91505092915050565b6000806040838503121561080e57600080fd5b600083013567ffffffffffffffff81111561082857600080fd5b61083485828601610710565b925050602061084585828601610764565b9150509250929050565b60006020828403121561086157600080fd5b600061086f84828501610764565b91505092915050565b60006108848383610941565b905092915050565b600061089782610ae9565b6108a18185610b17565b9350836020820285016108b385610ad9565b8060005b858110156108ef57848403895281516108d08582610878565b94506108db83610b0a565b925060208a019950506001810190506108b7565b50829750879550505050505092915050565b61090a81610b55565b82525050565b600061091b82610aff565b6109258185610b4a565b9350610935818560208601610b7a565b80840191505092915050565b600061094c82610af4565b6109568185610b28565b9350610966818560208601610b7a565b61096f81610bad565b840191505092915050565b600061098582610af4565b61098f8185610b39565b935061099f818560208601610b7a565b6109a881610bad565b840191505092915050565b6109bc81610b61565b82525050565b60006109ce8284610910565b915081905092915050565b600060208201905081810360008301526109f3818461088c565b905092915050565b60006020820190508181036000830152610a15818461097a565b905092915050565b6000606082019050610a3260008301866109b3565b610a3f60208301856109b3565b610a4c6040830184610901565b949350505050565b6000604051905081810181811067ffffffffffffffff82111715610a7757600080fd5b8060405250919050565b600067ffffffffffffffff821115610a9857600080fd5b601f19601f8301169050602081019050919050565b600067ffffffffffffffff821115610ac457600080fd5b601f19601f8301169050602081019050919050565b6000819050602082019050919050565b600081519050919050565b600081519050919050565b600081519050919050565b6000602082019050919050565b600082825260208201905092915050565b600082825260208201905092915050565b600082825260208201905092915050565b600081905092915050565b60008115159050919050565b6000819050919050565b82818337600083830152505050565b60005b83811015610b98578082015181840152602081019050610b7d565b83811115610ba7576000848401525b50505050565b6000601f19601f8301169050919050565b610bc781610b61565b8114610bd257600080fd5b5056fea365627a7a723158203042a88b1b0896bd488c07d02704d53686285e0a825c52d31f372fc9c9ddf28c6c6578706572696d656e74616cf564736f6c63430005100040",
  "source": "// SPDX-License-Identifier: MIT\r\npragma solidity >=0.4.21 <8.10.0;\r\npragma experimental ABIEncoderV2;\r\ncontract fundraiser {\r\n    string[] public fundraiserlist;\r\n    string[] public transferlist;\r\n    struct fund{\r\n        uint256 target;\r\n        uint256 collected;\r\n        bool b;\r\n    }\r\n    mapping (string => fund) public traverse;\r\n    function createfundraiser(string memory hash,uint target) public {\r\n        uint256 val=0;\r\n        traverse[hash]=(fund(target,val,false));\r\n        fundraiserlist.push(hash);\r\n    }\r\n    function transfer(string memory hash) public {\r\n        transferlist.push(hash);\r\n    }\r\n\r\n    function getall() view public returns(string[] memory){\r\n        return fundraiserlist;\r\n    }\r\n    function getfund() view public returns(string[] memory){\r\n        return transferlist;\r\n    }\r\n}",
  "sourcePath": "D:\\FundraisingPlatform\\prototype\\contracts\\fundraiser.sol",
  "compiler": {
    "name": "solc",
    "version": "0.5.16+commit.9c3226ce.Emscripten.clang"
  },
  "schemaVersion": "3.4.4",
  "updatedAt": "2022-04-13T08:59:14.314Z",
  "networkType": "ethereum",
  "devdoc": {
    "methods": {}
  },
  "userdoc": {
    "methods": {}
  }
}